{
  "_format": "hh-sol-artifact-1",
  "contractName": "Coin",
  "sourceName": "contracts/Coin.sol",
  "abi": [
    {
      "inputs": [],
      "stateMutability": "nonpayable",
      "type": "constructor"
    },
    {
      "inputs": [
        {
          "internalType": "uint256",
          "name": "requested",
          "type": "uint256"
        },
        {
          "internalType": "uint256",
          "name": "available",
          "type": "uint256"
        }
      ],
      "name": "InsufficientBalance",
      "type": "error"
    },
    {
      "anonymous": false,
      "inputs": [
        {
          "indexed": false,
          "internalType": "address",
          "name": "from",
          "type": "address"
        },
        {
          "indexed": false,
          "internalType": "address",
          "name": "to",
          "type": "address"
        },
        {
          "indexed": false,
          "internalType": "uint256",
          "name": "amount",
          "type": "uint256"
        }
      ],
      "name": "Send",
      "type": "event"
    },
    {
      "inputs": [
        {
          "internalType": "address",
          "name": "",
          "type": "address"
        }
      ],
      "name": "balances",
      "outputs": [
        {
          "internalType": "uint256",
          "name": "",
          "type": "uint256"
        }
      ],
      "stateMutability": "view",
      "type": "function"
    },
    {
      "inputs": [
        {
          "internalType": "address",
          "name": "receiver",
          "type": "address"
        },
        {
          "internalType": "uint256",
          "name": "amount",
          "type": "uint256"
        }
      ],
      "name": "mint",
      "outputs": [],
      "stateMutability": "nonpayable",
      "type": "function"
    },
    {
      "inputs": [],
      "name": "minter",
      "outputs": [
        {
          "internalType": "address",
          "name": "",
          "type": "address"
        }
      ],
      "stateMutability": "view",
      "type": "function"
    },
    {
      "inputs": [
        {
          "internalType": "address",
          "name": "sender",
          "type": "address"
        },
        {
          "internalType": "address",
          "name": "receiver",
          "type": "address"
        },
        {
          "internalType": "uint256",
          "name": "amount",
          "type": "uint256"
        }
      ],
      "name": "send",
      "outputs": [],
      "stateMutability": "nonpayable",
      "type": "function"
    }
  ],
  "bytecode": "0x608060405234801561001057600080fd5b50336000806101000a81548173ffffffffffffffffffffffffffffffffffffffff021916908373ffffffffffffffffffffffffffffffffffffffff1602179055506106f1806100606000396000f3fe608060405234801561001057600080fd5b506004361061004c5760003560e01c806307546172146100515780630779afe61461006f57806327e235e31461008b57806340c10f19146100bb575b600080fd5b6100596100d7565b60405161006691906103db565b60405180910390f35b6100896004803603810190610084919061045d565b6100fb565b005b6100a560048036038101906100a091906104b0565b6102cc565b6040516100b291906104ec565b60405180910390f35b6100d560048036038101906100d09190610507565b6102e4565b005b60008054906101000a900473ffffffffffffffffffffffffffffffffffffffff1681565b600160008473ffffffffffffffffffffffffffffffffffffffff1673ffffffffffffffffffffffffffffffffffffffff1681526020019081526020016000205481106101e05780600160008060009054906101000a900473ffffffffffffffffffffffffffffffffffffffff1673ffffffffffffffffffffffffffffffffffffffff1673ffffffffffffffffffffffffffffffffffffffff168152602001908152602001600020546040517fcf4791810000000000000000000000000000000000000000000000000000000081526004016101d7929190610547565b60405180910390fd5b80600160008573ffffffffffffffffffffffffffffffffffffffff1673ffffffffffffffffffffffffffffffffffffffff168152602001908152602001600020600082825461022f919061059f565b9250508190555080600160008473ffffffffffffffffffffffffffffffffffffffff1673ffffffffffffffffffffffffffffffffffffffff168152602001908152602001600020600082825461028591906105d3565b925050819055507f93eb3c629eb575edaf0252e4f9fc0c5ccada50496f8c1d32f0f93a65a8257eb58383836040516102bf93929190610607565b60405180910390a1505050565b60016020528060005260406000206000915090505481565b8173ffffffffffffffffffffffffffffffffffffffff163373ffffffffffffffffffffffffffffffffffffffff1614610352576040517f08c379a00000000000000000000000000000000000000000000000000000000081526004016103499061069b565b60405180910390fd5b80600160008473ffffffffffffffffffffffffffffffffffffffff1673ffffffffffffffffffffffffffffffffffffffff168152602001908152602001600020819055505050565b600073ffffffffffffffffffffffffffffffffffffffff82169050919050565b60006103c58261039a565b9050919050565b6103d5816103ba565b82525050565b60006020820190506103f060008301846103cc565b92915050565b600080fd5b610404816103ba565b811461040f57600080fd5b50565b600081359050610421816103fb565b92915050565b6000819050919050565b61043a81610427565b811461044557600080fd5b50565b60008135905061045781610431565b92915050565b600080600060608486031215610476576104756103f6565b5b600061048486828701610412565b935050602061049586828701610412565b92505060406104a686828701610448565b9150509250925092565b6000602082840312156104c6576104c56103f6565b5b60006104d484828501610412565b91505092915050565b6104e681610427565b82525050565b600060208201905061050160008301846104dd565b92915050565b6000806040838503121561051e5761051d6103f6565b5b600061052c85828601610412565b925050602061053d85828601610448565b9150509250929050565b600060408201905061055c60008301856104dd565b61056960208301846104dd565b9392505050565b7f4e487b7100000000000000000000000000000000000000000000000000000000600052601160045260246000fd5b60006105aa82610427565b91506105b583610427565b92508282039050818111156105cd576105cc610570565b5b92915050565b60006105de82610427565b91506105e983610427565b925082820190508082111561060157610600610570565b5b92915050565b600060608201905061061c60008301866103cc565b61062960208301856103cc565b61063660408301846104dd565b949350505050565b600082825260208201905092915050565b7f4f6e6c7920746865206d696e7465722063616e206d696e7420636f696e730000600082015250565b6000610685601e8361063e565b91506106908261064f565b602082019050919050565b600060208201905081810360008301526106b481610678565b905091905056fea26469706673582212209513bdc3c45160e10b73b82f8ccbfbc7ad189c660f18756709cc470f8873ef6564736f6c63430008180033",
  "linkReferences": {},
  "deployedLinkReferences": {}
}