{
  "_format": "hh-sol-artifact-1",
  "contractName": "Coin",
  "sourceName": "contracts/Coin.sol",
  "abi": [
    {
      "inputs": [],
      "stateMutability": "nonpayable",
      "type": "constructor"
    },
    {
      "inputs": [
        {
          "internalType": "uint256",
          "name": "requested",
          "type": "uint256"
        },
        {
          "internalType": "uint256",
          "name": "available",
          "type": "uint256"
        }
      ],
      "name": "InsufficientBalance",
      "type": "error"
    },
    {
      "anonymous": false,
      "inputs": [
        {
          "indexed": false,
          "internalType": "address",
          "name": "from",
          "type": "address"
        },
        {
          "indexed": false,
          "internalType": "address",
          "name": "to",
          "type": "address"
        },
        {
          "indexed": false,
          "internalType": "uint256",
          "name": "amount",
          "type": "uint256"
        }
      ],
      "name": "Send",
      "type": "event"
    },
    {
      "inputs": [
        {
          "internalType": "address",
          "name": "",
          "type": "address"
        }
      ],
      "name": "balances",
      "outputs": [
        {
          "internalType": "uint256",
          "name": "",
          "type": "uint256"
        }
      ],
      "stateMutability": "view",
      "type": "function"
    },
    {
      "inputs": [
        {
          "internalType": "address",
          "name": "user",
          "type": "address"
        }
      ],
      "name": "getBalance",
      "outputs": [
        {
          "internalType": "uint256",
          "name": "",
          "type": "uint256"
        }
      ],
      "stateMutability": "view",
      "type": "function"
    },
    {
      "inputs": [
        {
          "internalType": "uint256",
          "name": "amount",
          "type": "uint256"
        }
      ],
      "name": "mint",
      "outputs": [],
      "stateMutability": "nonpayable",
      "type": "function"
    },
    {
      "inputs": [],
      "name": "minter",
      "outputs": [
        {
          "internalType": "address",
          "name": "",
          "type": "address"
        }
      ],
      "stateMutability": "view",
      "type": "function"
    },
    {
      "inputs": [
        {
          "internalType": "address",
          "name": "sender",
          "type": "address"
        },
        {
          "internalType": "address",
          "name": "receiver",
          "type": "address"
        },
        {
          "internalType": "uint256",
          "name": "amount",
          "type": "uint256"
        }
      ],
      "name": "send",
      "outputs": [],
      "stateMutability": "nonpayable",
      "type": "function"
    }
  ],
  "bytecode": "0x608060405234801561001057600080fd5b50336000806101000a81548173ffffffffffffffffffffffffffffffffffffffff021916908373ffffffffffffffffffffffffffffffffffffffff160217905550610781806100606000396000f3fe608060405234801561001057600080fd5b50600436106100575760003560e01c8063075461721461005c5780630779afe61461007a57806327e235e314610096578063a0712d68146100c6578063f8b2cb4f146100e2575b600080fd5b610064610112565b604051610071919061047e565b60405180910390f35b610094600480360381019061008f9190610500565b610136565b005b6100b060048036038101906100ab9190610553565b610307565b6040516100bd919061058f565b60405180910390f35b6100e060048036038101906100db91906105aa565b61031f565b005b6100fc60048036038101906100f79190610553565b6103f4565b604051610109919061058f565b60405180910390f35b60008054906101000a900473ffffffffffffffffffffffffffffffffffffffff1681565b600160008473ffffffffffffffffffffffffffffffffffffffff1673ffffffffffffffffffffffffffffffffffffffff16815260200190815260200160002054811061021b5780600160008060009054906101000a900473ffffffffffffffffffffffffffffffffffffffff1673ffffffffffffffffffffffffffffffffffffffff1673ffffffffffffffffffffffffffffffffffffffff168152602001908152602001600020546040517fcf4791810000000000000000000000000000000000000000000000000000000081526004016102129291906105d7565b60405180910390fd5b80600160008573ffffffffffffffffffffffffffffffffffffffff1673ffffffffffffffffffffffffffffffffffffffff168152602001908152602001600020600082825461026a919061062f565b9250508190555080600160008473ffffffffffffffffffffffffffffffffffffffff1673ffffffffffffffffffffffffffffffffffffffff16815260200190815260200160002060008282546102c09190610663565b925050819055507f93eb3c629eb575edaf0252e4f9fc0c5ccada50496f8c1d32f0f93a65a8257eb58383836040516102fa93929190610697565b60405180910390a1505050565b60016020528060005260406000206000915090505481565b60008054906101000a900473ffffffffffffffffffffffffffffffffffffffff1673ffffffffffffffffffffffffffffffffffffffff163373ffffffffffffffffffffffffffffffffffffffff16146103ad576040517f08c379a00000000000000000000000000000000000000000000000000000000081526004016103a49061072b565b60405180910390fd5b80600160003373ffffffffffffffffffffffffffffffffffffffff1673ffffffffffffffffffffffffffffffffffffffff1681526020019081526020016000208190555050565b6000600160008373ffffffffffffffffffffffffffffffffffffffff1673ffffffffffffffffffffffffffffffffffffffff168152602001908152602001600020549050919050565b600073ffffffffffffffffffffffffffffffffffffffff82169050919050565b60006104688261043d565b9050919050565b6104788161045d565b82525050565b6000602082019050610493600083018461046f565b92915050565b600080fd5b6104a78161045d565b81146104b257600080fd5b50565b6000813590506104c48161049e565b92915050565b6000819050919050565b6104dd816104ca565b81146104e857600080fd5b50565b6000813590506104fa816104d4565b92915050565b60008060006060848603121561051957610518610499565b5b6000610527868287016104b5565b9350506020610538868287016104b5565b9250506040610549868287016104eb565b9150509250925092565b60006020828403121561056957610568610499565b5b6000610577848285016104b5565b91505092915050565b610589816104ca565b82525050565b60006020820190506105a46000830184610580565b92915050565b6000602082840312156105c0576105bf610499565b5b60006105ce848285016104eb565b91505092915050565b60006040820190506105ec6000830185610580565b6105f96020830184610580565b9392505050565b7f4e487b7100000000000000000000000000000000000000000000000000000000600052601160045260246000fd5b600061063a826104ca565b9150610645836104ca565b925082820390508181111561065d5761065c610600565b5b92915050565b600061066e826104ca565b9150610679836104ca565b925082820190508082111561069157610690610600565b5b92915050565b60006060820190506106ac600083018661046f565b6106b9602083018561046f565b6106c66040830184610580565b949350505050565b600082825260208201905092915050565b7f4f6e6c7920746865206d696e7465722063616e206d696e7420636f696e730000600082015250565b6000610715601e836106ce565b9150610720826106df565b602082019050919050565b6000602082019050818103600083015261074481610708565b905091905056fea2646970667358221220e29b6f5aac2debfc6647d9a95edd924da3a67eec8fbf76d3d14e7ebd006a994464736f6c63430008180033",
  "linkReferences": {},
  "deployedLinkReferences": {}
}